{
  "address": "0x47daE646612818D190E745Faef8b72C278AAb4f6",
  "abi": [
    {
      "inputs": [
        {
          "internalType": "address",
          "name": "_comptroller",
          "type": "address"
        }
      ],
      "stateMutability": "nonpayable",
      "type": "constructor"
    },
    {
      "anonymous": false,
      "inputs": [
        {
          "indexed": false,
          "internalType": "address",
          "name": "ibAgreement",
          "type": "address"
        }
      ],
      "name": "IBAgreementCreated",
      "type": "event"
    },
    {
      "anonymous": false,
      "inputs": [
        {
          "indexed": true,
          "internalType": "address",
          "name": "previousOwner",
          "type": "address"
        },
        {
          "indexed": true,
          "internalType": "address",
          "name": "newOwner",
          "type": "address"
        }
      ],
      "name": "OwnershipTransferred",
      "type": "event"
    },
    {
      "inputs": [],
      "name": "comptroller",
      "outputs": [
        {
          "internalType": "address",
          "name": "",
          "type": "address"
        }
      ],
      "stateMutability": "view",
      "type": "function"
    },
    {
      "inputs": [
        {
          "internalType": "address",
          "name": "_executor",
          "type": "address"
        },
        {
          "internalType": "address",
          "name": "_borrower",
          "type": "address"
        },
        {
          "internalType": "address",
          "name": "_governor",
          "type": "address"
        },
        {
          "internalType": "address",
          "name": "_collateral",
          "type": "address"
        },
        {
          "internalType": "address",
          "name": "_priceFeed",
          "type": "address"
        },
        {
          "internalType": "uint256",
          "name": "_collateralFactor",
          "type": "uint256"
        },
        {
          "internalType": "uint256",
          "name": "_liquidationFactor",
          "type": "uint256"
        },
        {
          "internalType": "uint256",
          "name": "_closeFactor",
          "type": "uint256"
        },
        {
          "internalType": "uint256",
          "name": "_collateralCap",
          "type": "uint256"
        }
      ],
      "name": "create",
      "outputs": [
        {
          "internalType": "address",
          "name": "",
          "type": "address"
        }
      ],
      "stateMutability": "nonpayable",
      "type": "function"
    },
    {
      "inputs": [],
      "name": "getAllAgreements",
      "outputs": [
        {
          "internalType": "address[]",
          "name": "",
          "type": "address[]"
        }
      ],
      "stateMutability": "view",
      "type": "function"
    },
    {
      "inputs": [
        {
          "internalType": "uint256",
          "name": "",
          "type": "uint256"
        }
      ],
      "name": "ibAgreements",
      "outputs": [
        {
          "internalType": "address",
          "name": "",
          "type": "address"
        }
      ],
      "stateMutability": "view",
      "type": "function"
    },
    {
      "inputs": [],
      "name": "owner",
      "outputs": [
        {
          "internalType": "address",
          "name": "",
          "type": "address"
        }
      ],
      "stateMutability": "view",
      "type": "function"
    },
    {
      "inputs": [],
      "name": "renounceOwnership",
      "outputs": [],
      "stateMutability": "nonpayable",
      "type": "function"
    },
    {
      "inputs": [
        {
          "internalType": "address",
          "name": "newOwner",
          "type": "address"
        }
      ],
      "name": "transferOwnership",
      "outputs": [],
      "stateMutability": "nonpayable",
      "type": "function"
    }
  ],
  "transactionHash": "0xbdc8a2424a4d690af8091172af1515e097d1969ab76587601444c2f90e0537a1",
  "args": [
    "0xE0B57FEEd45e7D908f2d0DaCd26F113Cf26715BF"
  ],
  "numDeployments": 2,
  "solcInputHash": "ce9a4384708a4d9f5ece57144f5297f6",
  "bytecode": "0x60a060405234801561001057600080fd5b50604051613d38380380613d3883398101604081905261002f9161009d565b6100383361004d565b60601b6001600160601b0319166080526100cb565b600080546001600160a01b038381166001600160a01b0319831681178455604051919092169283917f8be0079c531659141344cd1fd0a4f28419497f9722a3daafe3b4186f6b6457e09190a35050565b6000602082840312156100ae578081fd5b81516001600160a01b03811681146100c4578182fd5b9392505050565b60805160601c613c496100ef6000396000818160e001526102080152613c496000f3fe60806040523480156200001157600080fd5b5060043610620000885760003560e01c8063715018a61162000063578063715018a614620001025780638da5cb5b146200010e5780639f1aec601462000120578063f2fde38b14620001375762000088565b80634281e769146200008d5780634e6873c714620000c15780635fe3b56714620000da575b600080fd5b620000a46200009e36600462000556565b6200014e565b6040516001600160a01b0390911681526020015b60405180910390f35b620000cb62000179565b604051620000b891906200056f565b620000a47f000000000000000000000000000000000000000000000000000000000000000081565b6200010c620001dd565b005b6000546001600160a01b0316620000a4565b620000a462000131366004620004c2565b620001f5565b6200010c620001483660046200049e565b62000344565b600181815481106200015f57600080fd5b6000918252602090912001546001600160a01b0316905081565b60606001805480602002602001604051908101604052809291908181526020018280548015620001d357602002820191906000526020600020905b81546001600160a01b03168152600190910190602001808311620001b4575b5050505050905090565b620001e7620003c7565b620001f3600062000423565b565b600062000201620003c7565b60008a8a8a7f00000000000000000000000000000000000000000000000000000000000000008b8b8b8b8b8b6040516200023b9062000473565b6001600160a01b039a8b168152988a1660208a0152968916604089015294881660608801529287166080870152951660a085015260c084019490945260e083019390935261010082019290925261012081019190915261014001604051809103906000f080158015620002b2573d6000803e3d6000fd5b506001805480820182556000919091527fb10e2d527612073b26eecdfd717e6a320cf44b4afac2b0732d9fcbe2b7fa0cf60180546001600160a01b0319166001600160a01b0383169081179091556040519081529091507fbf1d3f7d480ac8371bfbfac85c84fdac76519ac5d83d3aa9ed57f6e1ca171fa69060200160405180910390a19a9950505050505050505050565b6200034e620003c7565b6001600160a01b038116620003b95760405162461bcd60e51b815260206004820152602660248201527f4f776e61626c653a206e6577206f776e657220697320746865207a65726f206160448201526564647265737360d01b60648201526084015b60405180910390fd5b620003c48162000423565b50565b6000546001600160a01b03163314620001f35760405162461bcd60e51b815260206004820181905260248201527f4f776e61626c653a2063616c6c6572206973206e6f7420746865206f776e65726044820152606401620003b0565b600080546001600160a01b038381166001600160a01b0319831681178455604051919092169283917f8be0079c531659141344cd1fd0a4f28419497f9722a3daafe3b4186f6b6457e09190a35050565b61365580620005bf83390190565b80356001600160a01b03811681146200049957600080fd5b919050565b600060208284031215620004b0578081fd5b620004bb8262000481565b9392505050565b60008060008060008060008060006101208a8c031215620004e1578485fd5b620004ec8a62000481565b9850620004fc60208b0162000481565b97506200050c60408b0162000481565b96506200051c60608b0162000481565b95506200052c60808b0162000481565b989b979a50959894979660a0860135965060c08601359560e0810135955061010001359350915050565b60006020828403121562000568578081fd5b5035919050565b6020808252825182820181905260009190848201906040850190845b81811015620005b25783516001600160a01b0316835292840192918401916001016200058b565b5090969550505050505056fe6101806040523480156200001257600080fd5b506040516200365538038062003655833981016040819052620000359162000314565b60016000819055805460ff191690556001600160601b031960608b811b82166080528a811b821660a05289811b821660c05288811b821660e05287901b1661010052600380546001600160a01b038781166001600160a01b031990921691909117918290556101208690526101408590526101608490526002839055604080516321df0da760e01b8152905192909116916321df0da791600480820192602092909190829003018186803b158015620000ed57600080fd5b505afa15801562000102573d6000803e3d6000fd5b505050506040513d601f19601f82011682018060405250810190620001289190620002f0565b6001600160a01b0316866001600160a01b0316146200018e5760405162461bcd60e51b815260206004820152601360248201527f6d69736d6174636820707269636520666565640000000000000000000000000060448201526064015b60405180910390fd5b600084118015620001a75750670de0b6b3a76400008411155b620001f55760405162461bcd60e51b815260206004820152601960248201527f696e76616c696420636f6c6c61746572616c20666163746f7200000000000000604482015260640162000185565b8383101580156200020e5750670de0b6b3a76400008311155b6200025c5760405162461bcd60e51b815260206004820152601a60248201527f696e76616c6964206c69717569646174696f6e20666163746f72000000000000604482015260640162000185565b600082118015620002755750670de0b6b3a76400008211155b620002c35760405162461bcd60e51b815260206004820152601460248201527f696e76616c696420636c6f736520666163746f72000000000000000000000000604482015260640162000185565b50505050505050505050620003be565b80516001600160a01b0381168114620002eb57600080fd5b919050565b60006020828403121562000302578081fd5b6200030d82620002d3565b9392505050565b6000806000806000806000806000806101408b8d03121562000334578586fd5b6200033f8b620002d3565b99506200034f60208c01620002d3565b98506200035f60408c01620002d3565b97506200036f60608c01620002d3565b96506200037f60808c01620002d3565b95506200038f60a08c01620002d3565b945060c08b0151935060e08b015192506101008b015191506101208b015190509295989b9194979a5092959850565b60805160601c60a05160601c60c05160601c60e05160601c6101005160601c61012051610140516101605161313b6200051a600039600081816101f901528181611084015261170c0152600081816102ab0152610ddd0152600081816104760152818161127a01526115a401526000818161044f0152818161076901528181610d1e01528181610f9b01528181611125015281816117ad0152818161193d01528181611c7b015281816124da01526126ae015260008181610334015281816113ad01528181611ff6015261207a01526000818161023301528181610eb201526118810152600081816103a7015281816104fa01528181610b1801528181610bc301528181610d4001528181610e4d015281816112ed0152611f310152600081816104040152818161065e01528181610d790152818161103301528181611207015281816115d4015281816118fe01526119cc015261313b6000f3fe608060405234801561001057600080fd5b50600436106101da5760003560e01c8063741bef1a11610104578063c34c08e5116100a2578063d8dfeb4511610071578063d8dfeb451461044a578063df011c4114610471578063e6d1544014610498578063eb9253c0146104ab576101da565b8063c34c08e5146103ff578063d2bb18e914610426578063d62429ba1461042f578063d785d03914610437576101da565b80638456cb59116100de5780638456cb59146103c95780638696465e146103d157806388ba0a14146103d95780639bd5c7c5146103ec576101da565b8063741bef1a1461037c5780637b3e99041461038f5780637df1f1b9146103a2576101da565b80633f4ba83a1161017c5780635c975abb1161014b5780635c975abb146103195780635fe3b5671461032f5780636a0e22ac14610356578063724e78da14610369576101da565b80633f4ba83a146102cd5780634031234c146102d557806340a05acb146102dd5780634b8a352914610306576101da565b806315b09fee116101b857806315b09fee1461026d57806322867d78146102805780632e1a7d4d14610293578063352ade55146102a6576101da565b806304949679146101df57806305308b9f146101f45780630c340a241461022e575b600080fd5b6101f26101ed366004612b45565b6104be565b005b61021b7f000000000000000000000000000000000000000000000000000000000000000081565b6040519081526020015b60405180910390f35b6102557f000000000000000000000000000000000000000000000000000000000000000081565b6040516001600160a01b039091168152602001610225565b6101f261027b366004612c43565b610653565b6101f261028e366004612ccc565b610ae5565b6101f26102a1366004612d2b565b610b90565b61021b7f000000000000000000000000000000000000000000000000000000000000000081565b6101f2610d6e565b61021b610dc0565b6102556102eb366004612b45565b6004602052600090815260409020546001600160a01b031681565b6101f2610314366004612ccc565b610e12565b60015460ff166040519015158152602001610225565b6102557f000000000000000000000000000000000000000000000000000000000000000081565b61021b610364366004612ccc565b610e94565b6101f2610377366004612b45565b610ea7565b600354610255906001600160a01b031681565b6101f261039d366004612cf7565b611028565b6102557f000000000000000000000000000000000000000000000000000000000000000081565b6101f26111fc565b61021b61124c565b61021b6103e7366004612d2b565b61125e565b6101f26103fa366004612b45565b6112b2565b6102557f000000000000000000000000000000000000000000000000000000000000000081565b61021b60025481565b61021b611587565b6101f2610445366004612cf7565b6115c9565b6102557f000000000000000000000000000000000000000000000000000000000000000081565b61021b7f000000000000000000000000000000000000000000000000000000000000000081565b6101f26104a6366004612d2b565b611876565b6101f26104b9366004612ccc565b6118f3565b600260005414156104ea5760405162461bcd60e51b81526004016104e190612e9b565b60405180910390fd5b6002600055336001600160a01b037f000000000000000000000000000000000000000000000000000000000000000016146105375760405162461bcd60e51b81526004016104e190612e00565b6040516305eff7ef60e21b81523060048201526000906001600160a01b038316906317bfdfbc90602401602060405180830381600087803b15801561057b57600080fd5b505af115801561058f573d6000803e3d6000fd5b505050506040513d601f19601f820116820180604052508101906105b39190612d43565b90506000826001600160a01b0316636f307dc36040518163ffffffff1660e01b815260040160206040518083038186803b1580156105f057600080fd5b505afa158015610604573d6000803e3d6000fd5b505050506040513d601f19601f820116820180604052508101906106289190612b61565b905061063f6001600160a01b0382163330856119f5565b6106498383611a60565b5050600160005550565b336001600160a01b037f0000000000000000000000000000000000000000000000000000000000000000161461069b5760405162461bcd60e51b81526004016104e190612e64565b8281146106dc5760405162461bcd60e51b815260206004820152600f60248201526e0d8cadccee8d040dad2e6dac2e8c6d608b1b60448201526064016104e1565b60005b83811015610ade57600083838381811061070957634e487b7160e01b600052603260045260246000fd5b905060200201602081019061071e9190612b45565b6001600160a01b031614156107675760405162461bcd60e51b815260206004820152600f60248201526e32b6b83a3c9031b7b73b32b93a32b960891b60448201526064016104e1565b7f00000000000000000000000000000000000000000000000000000000000000006001600160a01b03168383838181106107b157634e487b7160e01b600052603260045260246000fd5b90506020020160208101906107c69190612b45565b6001600160a01b03166367e828bf6040518163ffffffff1660e01b815260040160206040518083038186803b1580156107fe57600080fd5b505afa158015610812573d6000803e3d6000fd5b505050506040513d601f19601f820116820180604052508101906108369190612b61565b6001600160a01b0316146108845760405162461bcd60e51b815260206004820152601560248201527436b4b9b6b0ba31b41039b7bab931b2903a37b5b2b760591b60448201526064016104e1565b8484828181106108a457634e487b7160e01b600052603260045260246000fd5b90506020020160208101906108b99190612b45565b6001600160a01b0316636f307dc36040518163ffffffff1660e01b815260040160206040518083038186803b1580156108f157600080fd5b505afa158015610905573d6000803e3d6000fd5b505050506040513d601f19601f820116820180604052508101906109299190612b61565b6001600160a01b031683838381811061095257634e487b7160e01b600052603260045260246000fd5b90506020020160208101906109679190612b45565b6001600160a01b031663b269681d6040518163ffffffff1660e01b815260040160206040518083038186803b15801561099f57600080fd5b505afa1580156109b3573d6000803e3d6000fd5b505050506040513d601f19601f820116820180604052508101906109d79190612b61565b6001600160a01b031614610a2d5760405162461bcd60e51b815260206004820152601a60248201527f6d69736d617463682064657374696e6174696f6e20746f6b656e00000000000060448201526064016104e1565b828282818110610a4d57634e487b7160e01b600052603260045260246000fd5b9050602002016020810190610a629190612b45565b60046000878785818110610a8657634e487b7160e01b600052603260045260246000fd5b9050602002016020810190610a9b9190612b45565b6001600160a01b039081168252602082019290925260400160002080546001600160a01b0319169290911691909117905580610ad6816130a6565b9150506106df565b5050505050565b60026000541415610b085760405162461bcd60e51b81526004016104e190612e9b565b6002600055336001600160a01b037f00000000000000000000000000000000000000000000000000000000000000001614610b555760405162461bcd60e51b81526004016104e190612e00565b6000826001600160a01b0316636f307dc36040518163ffffffff1660e01b815260040160206040518083038186803b1580156105f057600080fd5b60026000541415610bb35760405162461bcd60e51b81526004016104e190612e9b565b6002600055336001600160a01b037f00000000000000000000000000000000000000000000000000000000000000001614610c005760405162461bcd60e51b81526004016104e190612e00565b6000306001600160a01b0316638696465e6040518163ffffffff1660e01b815260040160206040518083038186803b158015610c3b57600080fd5b505afa158015610c4f573d6000803e3d6000fd5b505050506040513d601f19601f82011682018060405250810190610c739190612d43565b90508015610d1157610c83611b9c565b60405163222e828560e21b81526004810183905230906388ba0a149060240160206040518083038186803b158015610cba57600080fd5b505afa158015610cce573d6000803e3d6000fd5b505050506040513d601f19601f82011682018060405250810190610cf29190612d43565b811115610d115760405162461bcd60e51b81526004016104e190612e37565b610d656001600160a01b037f0000000000000000000000000000000000000000000000000000000000000000167f000000000000000000000000000000000000000000000000000000000000000084611be2565b50506001600055565b336001600160a01b037f00000000000000000000000000000000000000000000000000000000000000001614610db65760405162461bcd60e51b81526004016104e190612e64565b610dbe611c17565b565b600080610dcd6000611c69565b9050670de0b6b3a7640000610e027f000000000000000000000000000000000000000000000000000000000000000083613021565b610e0c9190612eea565b91505090565b60026000541415610e355760405162461bcd60e51b81526004016104e190612e9b565b6002600055610e42611b9c565b336001600160a01b037f00000000000000000000000000000000000000000000000000000000000000001614610e8a5760405162461bcd60e51b81526004016104e190612e00565b610d658282611ddc565b6000610ea08383611fd2565b9392505050565b336001600160a01b037f00000000000000000000000000000000000000000000000000000000000000001614610f1f5760405162461bcd60e51b815260206004820152601a60248201527f63616c6c6572206973206e6f742074686520676f7665726e6f7200000000000060448201526064016104e1565b806001600160a01b03166321df0da76040518163ffffffff1660e01b815260040160206040518083038186803b158015610f5857600080fd5b505afa158015610f6c573d6000803e3d6000fd5b505050506040513d601f19601f82011682018060405250810190610f909190612b61565b6001600160a01b03167f00000000000000000000000000000000000000000000000000000000000000006001600160a01b0316146110065760405162461bcd60e51b81526020600482015260136024820152721b5a5cdb585d18da081c1c9a58d94819995959606a1b60448201526064016104e1565b600380546001600160a01b0319166001600160a01b0392909216919091179055565b336001600160a01b037f000000000000000000000000000000000000000000000000000000000000000016146110705760405162461bcd60e51b81526004016104e190612e64565b611079836122bc565b670de0b6b3a76400007f00000000000000000000000000000000000000000000000000000000000000006110ad600061268a565b6110b79190613021565b6110c19190612eea565b8211156111055760405162461bcd60e51b81526020600482015260126024820152710d8d2e2ead2c8c2e8ca40e8dede40daeac6d60731b60448201526064016104e1565b6001600160a01b0380841660009081526004602052604090205461114e917f00000000000000000000000000000000000000000000000000000000000000008116911684612759565b6001600160a01b038084166000908152600460208190526040808320549051631d5a3f7360e21b815292931691637568fdcc91611198918791879101918252602082015260400190565b602060405180830381600087803b1580156111b257600080fd5b505af11580156111c6573d6000803e3d6000fd5b505050506040513d601f19601f820116820180604052508101906111ea9190612d43565b90506111f68482611a60565b50505050565b336001600160a01b037f000000000000000000000000000000000000000000000000000000000000000016146112445760405162461bcd60e51b81526004016104e190612e64565b610dbe61281a565b6000611259600080611fd2565b905090565b60008061126a83611c69565b9050670de0b6b3a764000061129f7f000000000000000000000000000000000000000000000000000000000000000083613021565b6112a99190612eea565b9150505b919050565b600260005414156112d55760405162461bcd60e51b81526004016104e190612e9b565b60026000556112e2611b9c565b336001600160a01b037f0000000000000000000000000000000000000000000000000000000000000000161461132a5760405162461bcd60e51b81526004016104e190612e00565b6040516361bfb47160e11b81523060048201526000906001600160a01b0383169063c37f68e29060240160806040518083038186803b15801561136c57600080fd5b505afa158015611380573d6000803e3d6000fd5b505050506040513d601f19601f820116820180604052508101906113a49190612d5b565b509250505060007f00000000000000000000000000000000000000000000000000000000000000006001600160a01b0316637dc0d1d06040518163ffffffff1660e01b815260040160206040518083038186803b15801561140457600080fd5b505afa158015611418573d6000803e3d6000fd5b505050506040513d601f19601f8201168201806040525081019061143c9190612b61565b60405163fc57d4df60e01b81526001600160a01b03858116600483015291925060009183169063fc57d4df9060240160206040518083038186803b15801561148357600080fd5b505afa158015611497573d6000803e3d6000fd5b505050506040513d601f19601f820116820180604052508101906114bb9190612d43565b306001600160a01b031663d62429ba6040518163ffffffff1660e01b815260040160206040518083038186803b1580156114f457600080fd5b505afa158015611508573d6000803e3d6000fd5b505050506040513d601f19601f8201168201806040525081019061152c9190612d43565b61153e90670de0b6b3a7640000613021565b6115489190612eea565b90508281116115695760405162461bcd60e51b81526004016104e190612e37565b61157c846115778584613040565b611ddc565b505060016000555050565b6000806115946000611c69565b9050670de0b6b3a7640000610e027f000000000000000000000000000000000000000000000000000000000000000083613021565b336001600160a01b037f000000000000000000000000000000000000000000000000000000000000000016146116115760405162461bcd60e51b81526004016104e190612e64565b61161a836122bc565b6001600160a01b0380841660009081526004602081905260408083205490516301369f5560e71b815292931691639b4faa809161165d9187910190815260200190565b602060405180830381600087803b15801561167757600080fd5b505af115801561168b573d6000803e3d6000fd5b505050506040513d601f19601f820116820180604052508101906116af9190612d43565b9050818111156117015760405162461bcd60e51b815260206004820152601a60248201527f746f6f206d75636820636f6c6c61746572616c206e656564656400000000000060448201526064016104e1565b670de0b6b3a76400007f0000000000000000000000000000000000000000000000000000000000000000611735600061268a565b61173f9190613021565b6117499190612eea565b81111561178d5760405162461bcd60e51b81526020600482015260126024820152710d8d2e2ead2c8c2e8ca40e8dede40daeac6d60731b60448201526064016104e1565b6001600160a01b038085166000908152600460205260409020546117d6917f00000000000000000000000000000000000000000000000000000000000000008116911683612759565b6001600160a01b03848116600090815260046020819052604091829020549151635cf1aaf560e11b81529081018690526024810185905291169063b9e355ea90604401602060405180830381600087803b15801561183357600080fd5b505af1158015611847573d6000803e3d6000fd5b505050506040513d601f19601f8201168201806040525081019061186b9190612d43565b506111f68484611a60565b336001600160a01b037f000000000000000000000000000000000000000000000000000000000000000016146118ee5760405162461bcd60e51b815260206004820152601a60248201527f63616c6c6572206973206e6f742074686520676f7665726e6f7200000000000060448201526064016104e1565b600255565b336001600160a01b037f0000000000000000000000000000000000000000000000000000000000000000161461193b5760405162461bcd60e51b81526004016104e190612e64565b7f00000000000000000000000000000000000000000000000000000000000000006001600160a01b0316826001600160a01b031614156119bd5760405162461bcd60e51b815260206004820152601a60248201527f7365697a6520636f6c6c61746572616c206e6f7420616c6c6f7700000000000060448201526064016104e1565b6119f16001600160a01b0383167f000000000000000000000000000000000000000000000000000000000000000083611be2565b5050565b6040516001600160a01b03808516602483015283166044820152606481018290526111f69085906323b872dd60e01b906084015b60408051601f198184030181529190526020810180516001600160e01b03166001600160e01b031990931692909217909152612855565b611ae68282846001600160a01b0316636f307dc36040518163ffffffff1660e01b815260040160206040518083038186803b158015611a9e57600080fd5b505afa158015611ab2573d6000803e3d6000fd5b505050506040513d601f19601f82011682018060405250810190611ad69190612b61565b6001600160a01b03169190612759565b60405163073a938160e11b8152600481018290526001600160a01b03831690630e75270290602401602060405180830381600087803b158015611b2857600080fd5b505af1158015611b3c573d6000803e3d6000fd5b505050506040513d601f19601f82011682018060405250810190611b609190612d43565b156119f15760405162461bcd60e51b815260206004820152600c60248201526b1c995c185e4819985a5b195960a21b60448201526064016104e1565b60015460ff1615610dbe5760405162461bcd60e51b815260206004820152601060248201526f14185d5cd8589b194e881c185d5cd95960821b60448201526064016104e1565b6040516001600160a01b038316602482015260448101829052611c1290849063a9059cbb60e01b90606401611a29565b505050565b611c1f612927565b6001805460ff191690557f5db9ee0a495bf2e6ff9c91a7834c1ba4fdd244a5e8aa4e537bd38aeae4b073aa335b6040516001600160a01b03909116815260200160405180910390a1565b600080611c758361268a565b905060007f00000000000000000000000000000000000000000000000000000000000000006001600160a01b031663313ce5676040518163ffffffff1660e01b815260040160206040518083038186803b158015611cd257600080fd5b505afa158015611ce6573d6000803e3d6000fd5b505050506040513d601f19601f82011682018060405250810190611d0a9190612d90565b90506000611d19826012613057565b611d2490600a612f50565b611d2e9084613021565b9050670de0b6b3a7640000600360009054906101000a90046001600160a01b03166001600160a01b03166398d5fdca6040518163ffffffff1660e01b815260040160206040518083038186803b158015611d8757600080fd5b505afa158015611d9b573d6000803e3d6000fd5b505050506040513d601f19601f82011682018060405250810190611dbf9190612d43565b611dc99083613021565b611dd39190612eea565b95945050505050565b306001600160a01b031663d62429ba6040518163ffffffff1660e01b815260040160206040518083038186803b158015611e1557600080fd5b505afa158015611e29573d6000803e3d6000fd5b505050506040513d601f19601f82011682018060405250810190611e4d9190612d43565b611e578383611fd2565b1115611e755760405162461bcd60e51b81526004016104e190612e37565b60405163317afabb60e21b8152600481018290526001600160a01b0383169063c5ebeaec90602401602060405180830381600087803b158015611eb757600080fd5b505af1158015611ecb573d6000803e3d6000fd5b505050506040513d601f19601f82011682018060405250810190611eef9190612d43565b15611f2c5760405162461bcd60e51b815260206004820152600d60248201526c189bdc9c9bddc819985a5b1959609a1b60448201526064016104e1565b6119f17f000000000000000000000000000000000000000000000000000000000000000082846001600160a01b0316636f307dc36040518163ffffffff1660e01b815260040160206040518083038186803b158015611f8a57600080fd5b505afa158015611f9e573d6000803e3d6000fd5b505050506040513d601f19601f82011682018060405250810190611fc29190612b61565b6001600160a01b03169190611be2565b604051632aff3bff60e21b8152306004820152600090819081906001600160a01b037f0000000000000000000000000000000000000000000000000000000000000000169063abfceffc9060240160006040518083038186803b15801561203857600080fd5b505afa15801561204c573d6000803e3d6000fd5b505050506040513d6000823e601f3d908101601f191682016040526120749190810190612b7d565b905060007f00000000000000000000000000000000000000000000000000000000000000006001600160a01b0316637dc0d1d06040518163ffffffff1660e01b815260040160206040518083038186803b1580156120d157600080fd5b505afa1580156120e5573d6000803e3d6000fd5b505050506040513d601f19601f820116820180604052508101906121099190612b61565b905060005b82518110156122b157600083828151811061213957634e487b7160e01b600052603260045260246000fd5b60209081029190910101516040516361bfb47160e11b815230600482015290915060009081906001600160a01b0384169063c37f68e29060240160806040518083038186803b15801561218b57600080fd5b505afa15801561219f573d6000803e3d6000fd5b505050506040513d601f19601f820116820180604052508101906121c39190612d5b565b5092505050896001600160a01b0316836001600160a01b031614156121f3576121ec8982612ed2565b91506121f7565b8091505b60405163fc57d4df60e01b81526001600160a01b038481166004830152670de0b6b3a7640000919087169063fc57d4df9060240160206040518083038186803b15801561224357600080fd5b505afa158015612257573d6000803e3d6000fd5b505050506040513d601f19601f8201168201806040525081019061227b9190612d43565b6122859084613021565b61228f9190612eea565b6122999088612ed2565b965050505080806122a9906130a6565b91505061210e565b509195945050505050565b6000816001600160a01b0316636f307dc36040518163ffffffff1660e01b815260040160206040518083038186803b1580156122f757600080fd5b505afa15801561230b573d6000803e3d6000fd5b505050506040513d601f19601f8201168201806040525081019061232f9190612b61565b9050306001600160a01b0316634031234c6040518163ffffffff1660e01b815260040160206040518083038186803b15801561236a57600080fd5b505afa15801561237e573d6000803e3d6000fd5b505050506040513d601f19601f820116820180604052508101906123a29190612d43565b306001600160a01b0316638696465e6040518163ffffffff1660e01b815260040160206040518083038186803b1580156123db57600080fd5b505afa1580156123ef573d6000803e3d6000fd5b505050506040513d601f19601f820116820180604052508101906124139190612d43565b116124535760405162461bcd60e51b815260206004820152601060248201526f6e6f74206c6971756964617461626c6560801b60448201526064016104e1565b6001600160a01b03828116600090815260046020526040902054166124ac5760405162461bcd60e51b815260206004820152600f60248201526e32b6b83a3c9031b7b73b32b93a32b960891b60448201526064016104e1565b6001600160a01b038281166000908152600460208181526040928390205483516367e828bf60e01b815293517f000000000000000000000000000000000000000000000000000000000000000086169591909116936367e828bf93818101939291829003018186803b15801561252157600080fd5b505afa158015612535573d6000803e3d6000fd5b505050506040513d601f19601f820116820180604052508101906125599190612b61565b6001600160a01b0316146125a75760405162461bcd60e51b815260206004820152601560248201527436b4b9b6b0ba31b41039b7bab931b2903a37b5b2b760591b60448201526064016104e1565b6001600160a01b0382811660009081526004602081815260409283902054835163b269681d60e01b8152935185871695919091169363b269681d93818101939291829003018186803b1580156125fc57600080fd5b505afa158015612610573d6000803e3d6000fd5b505050506040513d601f19601f820116820180604052508101906126349190612b61565b6001600160a01b0316146119f15760405162461bcd60e51b815260206004820152601a60248201527f6d69736d617463682064657374696e6174696f6e20746f6b656e00000000000060448201526064016104e1565b6040516370a0823160e01b8152306004820152600090819083906001600160a01b037f000000000000000000000000000000000000000000000000000000000000000016906370a082319060240160206040518083038186803b1580156126f057600080fd5b505afa158015612704573d6000803e3d6000fd5b505050506040513d601f19601f820116820180604052508101906127289190612d43565b6127329190613040565b905060025460001415801561274957508060025411155b1561275357506002545b92915050565b604051636eb1769f60e11b81523060048201526001600160a01b038381166024830152600091839186169063dd62ed3e9060440160206040518083038186803b1580156127a557600080fd5b505afa1580156127b9573d6000803e3d6000fd5b505050506040513d601f19601f820116820180604052508101906127dd9190612d43565b6127e79190612ed2565b6040516001600160a01b0385166024820152604481018290529091506111f690859063095ea7b360e01b90606401611a29565b612822611b9c565b6001805460ff1916811790557f62e78cea01bee320cd4e420270b5ea74000d11b0c9f74754ebdbfc544b05a25833611c4c565b60006128aa826040518060400160405280602081526020017f5361666545524332303a206c6f772d6c6576656c2063616c6c206661696c6564815250856001600160a01b03166129709092919063ffffffff16565b805190915015611c1257808060200190518101906128c89190612cac565b611c125760405162461bcd60e51b815260206004820152602a60248201527f5361666545524332303a204552433230206f7065726174696f6e20646964206e6044820152691bdd081cdd58d8d9595960b21b60648201526084016104e1565b60015460ff16610dbe5760405162461bcd60e51b815260206004820152601460248201527314185d5cd8589b194e881b9bdd081c185d5cd95960621b60448201526064016104e1565b606061297f8484600085612987565b949350505050565b6060824710156129e85760405162461bcd60e51b815260206004820152602660248201527f416464726573733a20696e73756666696369656e742062616c616e636520666f6044820152651c8818d85b1b60d21b60648201526084016104e1565b6001600160a01b0385163b612a3f5760405162461bcd60e51b815260206004820152601d60248201527f416464726573733a2063616c6c20746f206e6f6e2d636f6e747261637400000060448201526064016104e1565b600080866001600160a01b03168587604051612a5b9190612db1565b60006040518083038185875af1925050503d8060008114612a98576040519150601f19603f3d011682016040523d82523d6000602084013e612a9d565b606091505b5091509150612aad828286612ab8565b979650505050505050565b60608315612ac7575081610ea0565b825115612ad75782518084602001fd5b8160405162461bcd60e51b81526004016104e19190612dcd565b80516112ad816130ed565b60008083601f840112612b0d578182fd5b50813567ffffffffffffffff811115612b24578182fd5b6020830191508360208083028501011115612b3e57600080fd5b9250929050565b600060208284031215612b56578081fd5b8135610ea0816130ed565b600060208284031215612b72578081fd5b8151610ea0816130ed565b60006020808385031215612b8f578182fd5b825167ffffffffffffffff80821115612ba6578384fd5b818501915085601f830112612bb9578384fd5b815181811115612bcb57612bcb6130d7565b838102604051601f19603f83011681018181108582111715612bef57612bef6130d7565b604052828152858101935084860182860187018a1015612c0d578788fd5b8795505b83861015612c3657612c2281612af1565b855260019590950194938601938601612c11565b5098975050505050505050565b60008060008060408587031215612c58578283fd5b843567ffffffffffffffff80821115612c6f578485fd5b612c7b88838901612afc565b90965094506020870135915080821115612c93578384fd5b50612ca087828801612afc565b95989497509550505050565b600060208284031215612cbd578081fd5b81518015158114610ea0578182fd5b60008060408385031215612cde578182fd5b8235612ce9816130ed565b946020939093013593505050565b600080600060608486031215612d0b578283fd5b8335612d16816130ed565b95602085013595506040909401359392505050565b600060208284031215612d3c578081fd5b5035919050565b600060208284031215612d54578081fd5b5051919050565b60008060008060808587031215612d70578384fd5b505082516020840151604085015160609095015191969095509092509050565b600060208284031215612da1578081fd5b815160ff81168114610ea0578182fd5b60008251612dc381846020870161307a565b9190910192915050565b6000602082528251806020840152612dec81604085016020870161307a565b601f01601f19169190910160400192915050565b6020808252601a908201527f63616c6c6572206973206e6f742074686520626f72726f776572000000000000604082015260600190565b6020808252601390820152721d5b99195c98dbdb1b185d195c985b1a5e9959606a1b604082015260600190565b6020808252601a908201527f63616c6c6572206973206e6f7420746865206578656375746f72000000000000604082015260600190565b6020808252601f908201527f5265656e7472616e637947756172643a207265656e7472616e742063616c6c00604082015260600190565b60008219821115612ee557612ee56130c1565b500190565b600082612f0557634e487b7160e01b81526012600452602481fd5b500490565b80825b6001808611612f1c5750612f47565b818704821115612f2e57612f2e6130c1565b80861615612f3b57918102915b9490941c938002612f0d565b94509492505050565b6000610ea060001960ff851684600082612f6c57506001610ea0565b81612f7957506000610ea0565b8160018114612f8f5760028114612f9957612fc6565b6001915050610ea0565b60ff841115612faa57612faa6130c1565b6001841b915084821115612fc057612fc06130c1565b50610ea0565b5060208310610133831016604e8410600b8410161715612ff9575081810a83811115612ff457612ff46130c1565b610ea0565b6130068484846001612f0a565b808604821115613018576130186130c1565b02949350505050565b600081600019048311821515161561303b5761303b6130c1565b500290565b600082821015613052576130526130c1565b500390565b600060ff821660ff841680821015613071576130716130c1565b90039392505050565b60005b8381101561309557818101518382015260200161307d565b838111156111f65750506000910152565b60006000198214156130ba576130ba6130c1565b5060010190565b634e487b7160e01b600052601160045260246000fd5b634e487b7160e01b600052604160045260246000fd5b6001600160a01b038116811461310257600080fd5b5056fea2646970667358221220578678d8872bf83c725f87aa0c585dafe925cb00746927f2a21982c7710520df64736f6c63430008020033a2646970667358221220cb7183554e7a0f17daa751f481efa63101cf43923debd860c347684d08ca1e1964736f6c63430008020033",
  "devdoc": {
    "kind": "dev",
    "methods": {
      "owner()": {
        "details": "Returns the address of the current owner."
      },
      "renounceOwnership()": {
        "details": "Leaves the contract without owner. It will not be possible to call `onlyOwner` functions anymore. Can only be called by the current owner. NOTE: Renouncing ownership will leave the contract without an owner, thereby removing any functionality that is only available to the owner."
      },
      "transferOwnership(address)": {
        "details": "Transfers ownership of the contract to a new account (`newOwner`). Can only be called by the current owner."
      }
    },
    "version": 1
  },
  "userdoc": {
    "kind": "user",
    "methods": {},
    "version": 1
  },
  "storageLayout": {
    "storage": [
      {
        "astId": 538,
        "contract": "contracts/IBAgreementFactory.sol:IBAgreementFactory",
        "label": "_owner",
        "offset": 0,
        "slot": "0",
        "type": "t_address"
      },
      {
        "astId": 3773,
        "contract": "contracts/IBAgreementFactory.sol:IBAgreementFactory",
        "label": "ibAgreements",
        "offset": 0,
        "slot": "1",
        "type": "t_array(t_address)dyn_storage"
      }
    ],
    "types": {
      "t_address": {
        "encoding": "inplace",
        "label": "address",
        "numberOfBytes": "20"
      },
      "t_array(t_address)dyn_storage": {
        "base": "t_address",
        "encoding": "dynamic_array",
        "label": "address[]",
        "numberOfBytes": "32"
      }
    }
  }
}