{
  "address": "0xc358D3Ea954e39cAeABc9c2fD80DCE21A920387b",
  "abi": [
    {
      "inputs": [
        {
          "internalType": "address",
          "name": "_comptroller",
          "type": "address"
        }
      ],
      "stateMutability": "nonpayable",
      "type": "constructor"
    },
    {
      "anonymous": false,
      "inputs": [
        {
          "indexed": false,
          "internalType": "address",
          "name": "ibAgreement",
          "type": "address"
        }
      ],
      "name": "IBAgreementCreated",
      "type": "event"
    },
    {
      "anonymous": false,
      "inputs": [
        {
          "indexed": true,
          "internalType": "address",
          "name": "previousOwner",
          "type": "address"
        },
        {
          "indexed": true,
          "internalType": "address",
          "name": "newOwner",
          "type": "address"
        }
      ],
      "name": "OwnershipTransferred",
      "type": "event"
    },
    {
      "inputs": [],
      "name": "comptroller",
      "outputs": [
        {
          "internalType": "address",
          "name": "",
          "type": "address"
        }
      ],
      "stateMutability": "view",
      "type": "function"
    },
    {
      "inputs": [
        {
          "internalType": "address",
          "name": "_executor",
          "type": "address"
        },
        {
          "internalType": "address",
          "name": "_borrower",
          "type": "address"
        },
        {
          "internalType": "address",
          "name": "_governor",
          "type": "address"
        },
        {
          "internalType": "address",
          "name": "_collateral",
          "type": "address"
        },
        {
          "internalType": "address",
          "name": "_priceFeed",
          "type": "address"
        },
        {
          "internalType": "uint256",
          "name": "_collateralFactor",
          "type": "uint256"
        },
        {
          "internalType": "uint256",
          "name": "_liquidationFactor",
          "type": "uint256"
        },
        {
          "internalType": "uint256",
          "name": "_closeFactor",
          "type": "uint256"
        },
        {
          "internalType": "uint256",
          "name": "_collateralCap",
          "type": "uint256"
        }
      ],
      "name": "create",
      "outputs": [
        {
          "internalType": "address",
          "name": "",
          "type": "address"
        }
      ],
      "stateMutability": "nonpayable",
      "type": "function"
    },
    {
      "inputs": [],
      "name": "getAllAgreements",
      "outputs": [
        {
          "internalType": "address[]",
          "name": "",
          "type": "address[]"
        }
      ],
      "stateMutability": "view",
      "type": "function"
    },
    {
      "inputs": [
        {
          "internalType": "uint256",
          "name": "",
          "type": "uint256"
        }
      ],
      "name": "ibAgreements",
      "outputs": [
        {
          "internalType": "address",
          "name": "",
          "type": "address"
        }
      ],
      "stateMutability": "view",
      "type": "function"
    },
    {
      "inputs": [],
      "name": "owner",
      "outputs": [
        {
          "internalType": "address",
          "name": "",
          "type": "address"
        }
      ],
      "stateMutability": "view",
      "type": "function"
    },
    {
      "inputs": [],
      "name": "renounceOwnership",
      "outputs": [],
      "stateMutability": "nonpayable",
      "type": "function"
    },
    {
      "inputs": [
        {
          "internalType": "address",
          "name": "newOwner",
          "type": "address"
        }
      ],
      "name": "transferOwnership",
      "outputs": [],
      "stateMutability": "nonpayable",
      "type": "function"
    }
  ],
  "transactionHash": "0xc1b06bf7bea3cfc6c8c87dfdf3a8ed53ff31284d233738b0f316c2ec0431d9dc",
  "args": [
    "0xE0B57FEEd45e7D908f2d0DaCd26F113Cf26715BF"
  ],
  "numDeployments": 3,
  "solcInputHash": "32893b49ba3a040dc83d3924462f375a",
  "bytecode": "0x60a060405234801561001057600080fd5b50604051613ff5380380613ff583398101604081905261002f9161009d565b6100383361004d565b60601b6001600160601b0319166080526100cb565b600080546001600160a01b038381166001600160a01b0319831681178455604051919092169283917f8be0079c531659141344cd1fd0a4f28419497f9722a3daafe3b4186f6b6457e09190a35050565b6000602082840312156100ae578081fd5b81516001600160a01b03811681146100c4578182fd5b9392505050565b60805160601c613f066100ef6000396000818160e001526102080152613f066000f3fe60806040523480156200001157600080fd5b5060043610620000885760003560e01c8063715018a61162000063578063715018a614620001025780638da5cb5b146200010e5780639f1aec601462000120578063f2fde38b14620001375762000088565b80634281e769146200008d5780634e6873c714620000c15780635fe3b56714620000da575b600080fd5b620000a46200009e36600462000556565b6200014e565b6040516001600160a01b0390911681526020015b60405180910390f35b620000cb62000179565b604051620000b891906200056f565b620000a47f000000000000000000000000000000000000000000000000000000000000000081565b6200010c620001dd565b005b6000546001600160a01b0316620000a4565b620000a462000131366004620004c2565b620001f5565b6200010c620001483660046200049e565b62000344565b600181815481106200015f57600080fd5b6000918252602090912001546001600160a01b0316905081565b60606001805480602002602001604051908101604052809291908181526020018280548015620001d357602002820191906000526020600020905b81546001600160a01b03168152600190910190602001808311620001b4575b5050505050905090565b620001e7620003c7565b620001f3600062000423565b565b600062000201620003c7565b60008a8a8a7f00000000000000000000000000000000000000000000000000000000000000008b8b8b8b8b8b6040516200023b9062000473565b6001600160a01b039a8b168152988a1660208a0152968916604089015294881660608801529287166080870152951660a085015260c084019490945260e083019390935261010082019290925261012081019190915261014001604051809103906000f080158015620002b2573d6000803e3d6000fd5b506001805480820182556000919091527fb10e2d527612073b26eecdfd717e6a320cf44b4afac2b0732d9fcbe2b7fa0cf60180546001600160a01b0319166001600160a01b0383169081179091556040519081529091507fbf1d3f7d480ac8371bfbfac85c84fdac76519ac5d83d3aa9ed57f6e1ca171fa69060200160405180910390a19a9950505050505050505050565b6200034e620003c7565b6001600160a01b038116620003b95760405162461bcd60e51b815260206004820152602660248201527f4f776e61626c653a206e6577206f776e657220697320746865207a65726f206160448201526564647265737360d01b60648201526084015b60405180910390fd5b620003c48162000423565b50565b6000546001600160a01b03163314620001f35760405162461bcd60e51b815260206004820181905260248201527f4f776e61626c653a2063616c6c6572206973206e6f7420746865206f776e65726044820152606401620003b0565b600080546001600160a01b038381166001600160a01b0319831681178455604051919092169283917f8be0079c531659141344cd1fd0a4f28419497f9722a3daafe3b4186f6b6457e09190a35050565b61391280620005bf83390190565b80356001600160a01b03811681146200049957600080fd5b919050565b600060208284031215620004b0578081fd5b620004bb8262000481565b9392505050565b60008060008060008060008060006101208a8c031215620004e1578485fd5b620004ec8a62000481565b9850620004fc60208b0162000481565b97506200050c60408b0162000481565b96506200051c60608b0162000481565b95506200052c60808b0162000481565b989b979a50959894979660a0860135965060c08601359560e0810135955061010001359350915050565b60006020828403121562000568578081fd5b5035919050565b6020808252825182820181905260009190848201906040850190845b81811015620005b25783516001600160a01b0316835292840192918401916001016200058b565b5090969550505050505056fe6101806040523480156200001257600080fd5b506040516200391238038062003912833981016040819052620000359162000314565b60016000819055805460ff191690556001600160601b031960608b811b82166080528a811b821660a05289811b821660c05288811b821660e05287901b1661010052600380546001600160a01b038781166001600160a01b031990921691909117918290556101208690526101408590526101608490526002839055604080516321df0da760e01b8152905192909116916321df0da791600480820192602092909190829003018186803b158015620000ed57600080fd5b505afa15801562000102573d6000803e3d6000fd5b505050506040513d601f19601f82011682018060405250810190620001289190620002f0565b6001600160a01b0316866001600160a01b0316146200018e5760405162461bcd60e51b815260206004820152601360248201527f6d69736d6174636820707269636520666565640000000000000000000000000060448201526064015b60405180910390fd5b600084118015620001a75750670de0b6b3a76400008411155b620001f55760405162461bcd60e51b815260206004820152601960248201527f696e76616c696420636f6c6c61746572616c20666163746f7200000000000000604482015260640162000185565b8383101580156200020e5750670de0b6b3a76400008311155b6200025c5760405162461bcd60e51b815260206004820152601a60248201527f696e76616c6964206c69717569646174696f6e20666163746f72000000000000604482015260640162000185565b600082118015620002755750670de0b6b3a76400008211155b620002c35760405162461bcd60e51b815260206004820152601460248201527f696e76616c696420636c6f736520666163746f72000000000000000000000000604482015260640162000185565b50505050505050505050620003be565b80516001600160a01b0381168114620002eb57600080fd5b919050565b60006020828403121562000302578081fd5b6200030d82620002d3565b9392505050565b6000806000806000806000806000806101408b8d03121562000334578586fd5b6200033f8b620002d3565b99506200034f60208c01620002d3565b98506200035f60408c01620002d3565b97506200036f60608c01620002d3565b96506200037f60808c01620002d3565b95506200038f60a08c01620002d3565b945060c08b0151935060e08b015192506101008b015191506101208b015190509295989b9194979a5092959850565b60805160601c60a05160601c60c05160601c60e05160601c6101005160601c6101205161014051610160516133ea62000528600039600081816101f9015281816111d501526118d10152600081816102ab0152610eee0152600081816104760152818161143f015261176901526000818161044f0152818161076901528181610e2f015281816110ac01528181611276015281816113410152818161197201528181611a3701528181611bad01528181611f2a01528181612789015261295d01526000818161033401528181611572015281816122a5015261232901526000818161023301528181610fc30152611ab80152600081816103a7015281816104fa01528181610c2901528181610cd401528181610e5101528181610f5e015281816114b201526121e00152600081816104040152818161065e01528181610e8a01528181611184015281816113cc0152818161179901528181611b6e0152611c3c01526133ea6000f3fe608060405234801561001057600080fd5b50600436106101da5760003560e01c8063741bef1a11610104578063c34c08e5116100a2578063d8dfeb4511610071578063d8dfeb451461044a578063df011c4114610471578063e6d1544014610498578063eb9253c0146104ab576101da565b8063c34c08e5146103ff578063d2bb18e914610426578063d62429ba1461042f578063d785d03914610437576101da565b80638456cb59116100de5780638456cb59146103c95780638696465e146103d157806388ba0a14146103d95780639bd5c7c5146103ec576101da565b8063741bef1a1461037c5780637b3e99041461038f5780637df1f1b9146103a2576101da565b80633f4ba83a1161017c5780635c975abb1161014b5780635c975abb146103195780635fe3b5671461032f5780636a0e22ac14610356578063724e78da14610369576101da565b80633f4ba83a146102cd5780634031234c146102d557806340a05acb146102dd5780634b8a352914610306576101da565b806315b09fee116101b857806315b09fee1461026d57806322867d78146102805780632e1a7d4d14610293578063352ade55146102a6576101da565b806304949679146101df57806305308b9f146101f45780630c340a241461022e575b600080fd5b6101f26101ed366004612df4565b6104be565b005b61021b7f000000000000000000000000000000000000000000000000000000000000000081565b6040519081526020015b60405180910390f35b6102557f000000000000000000000000000000000000000000000000000000000000000081565b6040516001600160a01b039091168152602001610225565b6101f261027b366004612ef2565b610653565b6101f261028e366004612f7b565b610bf6565b6101f26102a1366004612fda565b610ca1565b61021b7f000000000000000000000000000000000000000000000000000000000000000081565b6101f2610e7f565b61021b610ed1565b6102556102eb366004612df4565b6004602052600090815260409020546001600160a01b031681565b6101f2610314366004612f7b565b610f23565b60015460ff166040519015158152602001610225565b6102557f000000000000000000000000000000000000000000000000000000000000000081565b61021b610364366004612f7b565b610fa5565b6101f2610377366004612df4565b610fb8565b600354610255906001600160a01b031681565b6101f261039d366004612fa6565b611179565b6102557f000000000000000000000000000000000000000000000000000000000000000081565b6101f26113c1565b61021b611411565b61021b6103e7366004612fda565b611423565b6101f26103fa366004612df4565b611477565b6102557f000000000000000000000000000000000000000000000000000000000000000081565b61021b60025481565b61021b61174c565b6101f2610445366004612fa6565b61178e565b6102557f000000000000000000000000000000000000000000000000000000000000000081565b61021b7f000000000000000000000000000000000000000000000000000000000000000081565b6101f26104a6366004612fda565b611aad565b6101f26104b9366004612f7b565b611b63565b600260005414156104ea5760405162461bcd60e51b81526004016104e19061314a565b60405180910390fd5b6002600055336001600160a01b037f000000000000000000000000000000000000000000000000000000000000000016146105375760405162461bcd60e51b81526004016104e1906130af565b6040516305eff7ef60e21b81523060048201526000906001600160a01b038316906317bfdfbc90602401602060405180830381600087803b15801561057b57600080fd5b505af115801561058f573d6000803e3d6000fd5b505050506040513d601f19601f820116820180604052508101906105b39190612ff2565b90506000826001600160a01b0316636f307dc36040518163ffffffff1660e01b815260040160206040518083038186803b1580156105f057600080fd5b505afa158015610604573d6000803e3d6000fd5b505050506040513d601f19601f820116820180604052508101906106289190612e10565b905061063f6001600160a01b038216333085611ca0565b6106498383611d0b565b5050600160005550565b336001600160a01b037f0000000000000000000000000000000000000000000000000000000000000000161461069b5760405162461bcd60e51b81526004016104e190613113565b8281146106dc5760405162461bcd60e51b815260206004820152600f60248201526e0d8cadccee8d040dad2e6dac2e8c6d608b1b60448201526064016104e1565b60005b83811015610bef57600083838381811061070957634e487b7160e01b600052603260045260246000fd5b905060200201602081019061071e9190612df4565b6001600160a01b031614156107675760405162461bcd60e51b815260206004820152600f60248201526e32b6b83a3c9031b7b73b32b93a32b960891b60448201526064016104e1565b7f00000000000000000000000000000000000000000000000000000000000000006001600160a01b03168383838181106107b157634e487b7160e01b600052603260045260246000fd5b90506020020160208101906107c69190612df4565b6001600160a01b03166367e828bf6040518163ffffffff1660e01b815260040160206040518083038186803b1580156107fe57600080fd5b505afa158015610812573d6000803e3d6000fd5b505050506040513d601f19601f820116820180604052508101906108369190612e10565b6001600160a01b0316146108845760405162461bcd60e51b815260206004820152601560248201527436b4b9b6b0ba31b41039b7bab931b2903a37b5b2b760591b60448201526064016104e1565b8484828181106108a457634e487b7160e01b600052603260045260246000fd5b90506020020160208101906108b99190612df4565b6001600160a01b0316636f307dc36040518163ffffffff1660e01b815260040160206040518083038186803b1580156108f157600080fd5b505afa158015610905573d6000803e3d6000fd5b505050506040513d601f19601f820116820180604052508101906109299190612e10565b6001600160a01b031683838381811061095257634e487b7160e01b600052603260045260246000fd5b90506020020160208101906109679190612df4565b6001600160a01b031663b269681d6040518163ffffffff1660e01b815260040160206040518083038186803b15801561099f57600080fd5b505afa1580156109b3573d6000803e3d6000fd5b505050506040513d601f19601f820116820180604052508101906109d79190612e10565b6001600160a01b031614610a2d5760405162461bcd60e51b815260206004820152601a60248201527f6d69736d617463682064657374696e6174696f6e20746f6b656e00000000000060448201526064016104e1565b600060046000878785818110610a5357634e487b7160e01b600052603260045260246000fd5b9050602002016020810190610a689190612df4565b6001600160a01b039081168252602082019290925260400160002054169050838383818110610aa757634e487b7160e01b600052603260045260246000fd5b9050602002016020810190610abc9190612df4565b60046000888886818110610ae057634e487b7160e01b600052603260045260246000fd5b9050602002016020810190610af59190612df4565b6001600160a01b039081168252602082019290925260400160002080546001600160a01b031916929091169190911790557fc17c6beff393eab121cf29fd9b1928baa837fe7f741a04358a5054a7926300c0868684818110610b6757634e487b7160e01b600052603260045260246000fd5b9050602002016020810190610b7c9190612df4565b82868686818110610b9d57634e487b7160e01b600052603260045260246000fd5b9050602002016020810190610bb29190612df4565b604080516001600160a01b039485168152928416602084015292168183015290519081900360600190a15080610be781613355565b9150506106df565b5050505050565b60026000541415610c195760405162461bcd60e51b81526004016104e19061314a565b6002600055336001600160a01b037f00000000000000000000000000000000000000000000000000000000000000001614610c665760405162461bcd60e51b81526004016104e1906130af565b6000826001600160a01b0316636f307dc36040518163ffffffff1660e01b815260040160206040518083038186803b1580156105f057600080fd5b60026000541415610cc45760405162461bcd60e51b81526004016104e19061314a565b6002600055336001600160a01b037f00000000000000000000000000000000000000000000000000000000000000001614610d115760405162461bcd60e51b81526004016104e1906130af565b6000306001600160a01b0316638696465e6040518163ffffffff1660e01b815260040160206040518083038186803b158015610d4c57600080fd5b505afa158015610d60573d6000803e3d6000fd5b505050506040513d601f19601f82011682018060405250810190610d849190612ff2565b90508015610e2257610d94611e4b565b60405163222e828560e21b81526004810183905230906388ba0a149060240160206040518083038186803b158015610dcb57600080fd5b505afa158015610ddf573d6000803e3d6000fd5b505050506040513d601f19601f82011682018060405250810190610e039190612ff2565b811115610e225760405162461bcd60e51b81526004016104e1906130e6565b610e766001600160a01b037f0000000000000000000000000000000000000000000000000000000000000000167f000000000000000000000000000000000000000000000000000000000000000084611e91565b50506001600055565b336001600160a01b037f00000000000000000000000000000000000000000000000000000000000000001614610ec75760405162461bcd60e51b81526004016104e190613113565b610ecf611ec6565b565b600080610ede6000611f18565b9050670de0b6b3a7640000610f137f0000000000000000000000000000000000000000000000000000000000000000836132d0565b610f1d9190613199565b91505090565b60026000541415610f465760405162461bcd60e51b81526004016104e19061314a565b6002600055610f53611e4b565b336001600160a01b037f00000000000000000000000000000000000000000000000000000000000000001614610f9b5760405162461bcd60e51b81526004016104e1906130af565b610e76828261208b565b6000610fb18383612281565b9392505050565b336001600160a01b037f000000000000000000000000000000000000000000000000000000000000000016146110305760405162461bcd60e51b815260206004820152601a60248201527f63616c6c6572206973206e6f742074686520676f7665726e6f7200000000000060448201526064016104e1565b806001600160a01b03166321df0da76040518163ffffffff1660e01b815260040160206040518083038186803b15801561106957600080fd5b505afa15801561107d573d6000803e3d6000fd5b505050506040513d601f19601f820116820180604052508101906110a19190612e10565b6001600160a01b03167f00000000000000000000000000000000000000000000000000000000000000006001600160a01b0316146111175760405162461bcd60e51b81526020600482015260136024820152721b5a5cdb585d18da081c1c9a58d94819995959606a1b60448201526064016104e1565b600380546001600160a01b038381166001600160a01b031983168117909355604080519190921680825260208201939093527fa8abe0398416476db5b05737cd4da3b3cbde5012d978a6a6c3fd49d32175353691015b60405180910390a15050565b336001600160a01b037f000000000000000000000000000000000000000000000000000000000000000016146111c15760405162461bcd60e51b81526004016104e190613113565b6111ca8361256b565b670de0b6b3a76400007f00000000000000000000000000000000000000000000000000000000000000006111fe6000612939565b61120891906132d0565b6112129190613199565b8211156112565760405162461bcd60e51b81526020600482015260126024820152710d8d2e2ead2c8c2e8ca40e8dede40daeac6d60731b60448201526064016104e1565b6001600160a01b0380841660009081526004602052604090205461129f917f00000000000000000000000000000000000000000000000000000000000000008116911684612a08565b6001600160a01b038084166000908152600460208190526040808320549051631d5a3f7360e21b815292931691637568fdcc916112e9918791879101918252602082015260400190565b602060405180830381600087803b15801561130357600080fd5b505af1158015611317573d6000803e3d6000fd5b505050506040513d601f19601f8201168201806040525081019061133b9190612ff2565b604080517f00000000000000000000000000000000000000000000000000000000000000006001600160a01b039081168252602082018790528716818301526060810183905290519192507f3a487deef66df543d7641c7d8d3da7272a2658edd9f10ffe591214499517a2c8919081900360800190a16113bb8482611d0b565b50505050565b336001600160a01b037f000000000000000000000000000000000000000000000000000000000000000016146114095760405162461bcd60e51b81526004016104e190613113565b610ecf612ac9565b600061141e600080612281565b905090565b60008061142f83611f18565b9050670de0b6b3a76400006114647f0000000000000000000000000000000000000000000000000000000000000000836132d0565b61146e9190613199565b9150505b919050565b6002600054141561149a5760405162461bcd60e51b81526004016104e19061314a565b60026000556114a7611e4b565b336001600160a01b037f000000000000000000000000000000000000000000000000000000000000000016146114ef5760405162461bcd60e51b81526004016104e1906130af565b6040516361bfb47160e11b81523060048201526000906001600160a01b0383169063c37f68e29060240160806040518083038186803b15801561153157600080fd5b505afa158015611545573d6000803e3d6000fd5b505050506040513d601f19601f82011682018060405250810190611569919061300a565b509250505060007f00000000000000000000000000000000000000000000000000000000000000006001600160a01b0316637dc0d1d06040518163ffffffff1660e01b815260040160206040518083038186803b1580156115c957600080fd5b505afa1580156115dd573d6000803e3d6000fd5b505050506040513d601f19601f820116820180604052508101906116019190612e10565b60405163fc57d4df60e01b81526001600160a01b03858116600483015291925060009183169063fc57d4df9060240160206040518083038186803b15801561164857600080fd5b505afa15801561165c573d6000803e3d6000fd5b505050506040513d601f19601f820116820180604052508101906116809190612ff2565b306001600160a01b031663d62429ba6040518163ffffffff1660e01b815260040160206040518083038186803b1580156116b957600080fd5b505afa1580156116cd573d6000803e3d6000fd5b505050506040513d601f19601f820116820180604052508101906116f19190612ff2565b61170390670de0b6b3a76400006132d0565b61170d9190613199565b905082811161172e5760405162461bcd60e51b81526004016104e1906130e6565b6117418461173c85846132ef565b61208b565b505060016000555050565b6000806117596000611f18565b9050670de0b6b3a7640000610f137f0000000000000000000000000000000000000000000000000000000000000000836132d0565b336001600160a01b037f000000000000000000000000000000000000000000000000000000000000000016146117d65760405162461bcd60e51b81526004016104e190613113565b6117df8361256b565b6001600160a01b0380841660009081526004602081905260408083205490516301369f5560e71b815292931691639b4faa80916118229187910190815260200190565b602060405180830381600087803b15801561183c57600080fd5b505af1158015611850573d6000803e3d6000fd5b505050506040513d601f19601f820116820180604052508101906118749190612ff2565b9050818111156118c65760405162461bcd60e51b815260206004820152601a60248201527f746f6f206d75636820636f6c6c61746572616c206e656564656400000000000060448201526064016104e1565b670de0b6b3a76400007f00000000000000000000000000000000000000000000000000000000000000006118fa6000612939565b61190491906132d0565b61190e9190613199565b8111156119525760405162461bcd60e51b81526020600482015260126024820152710d8d2e2ead2c8c2e8ca40e8dede40daeac6d60731b60448201526064016104e1565b6001600160a01b0380851660009081526004602052604090205461199b917f00000000000000000000000000000000000000000000000000000000000000008116911683612a08565b6001600160a01b03848116600090815260046020819052604091829020549151635cf1aaf560e11b81529081018690526024810185905291169063b9e355ea90604401602060405180830381600087803b1580156119f857600080fd5b505af1158015611a0c573d6000803e3d6000fd5b505050506040513d601f19601f82011682018060405250810190611a309190612ff2565b50604080517f00000000000000000000000000000000000000000000000000000000000000006001600160a01b039081168252602082018490528616818301526060810185905290517f3a487deef66df543d7641c7d8d3da7272a2658edd9f10ffe591214499517a2c89181900360800190a16113bb8484611d0b565b336001600160a01b037f00000000000000000000000000000000000000000000000000000000000000001614611b255760405162461bcd60e51b815260206004820152601a60248201527f63616c6c6572206973206e6f742074686520676f7665726e6f7200000000000060448201526064016104e1565b600280549082905560408051828152602081018490527f4c1ad452c2b40162fabcc1637dd6237b98c17d4b9ab275ffcec293dbd766ce81910161116d565b336001600160a01b037f00000000000000000000000000000000000000000000000000000000000000001614611bab5760405162461bcd60e51b81526004016104e190613113565b7f00000000000000000000000000000000000000000000000000000000000000006001600160a01b0316826001600160a01b03161415611c2d5760405162461bcd60e51b815260206004820152601a60248201527f7365697a6520636f6c6c61746572616c206e6f7420616c6c6f7700000000000060448201526064016104e1565b611c616001600160a01b0383167f000000000000000000000000000000000000000000000000000000000000000083611e91565b604080516001600160a01b0384168152602081018390527fb930d7c3c6896f70ea10a959f1d9a7c04e0467138efa4c7040570d4b8f4894b6910161116d565b6040516001600160a01b03808516602483015283166044820152606481018290526113bb9085906323b872dd60e01b906084015b60408051601f198184030181529190526020810180516001600160e01b03166001600160e01b031990931692909217909152612b04565b611d918282846001600160a01b0316636f307dc36040518163ffffffff1660e01b815260040160206040518083038186803b158015611d4957600080fd5b505afa158015611d5d573d6000803e3d6000fd5b505050506040513d601f19601f82011682018060405250810190611d819190612e10565b6001600160a01b03169190612a08565b60405163073a938160e11b8152600481018290526001600160a01b03831690630e75270290602401602060405180830381600087803b158015611dd357600080fd5b505af1158015611de7573d6000803e3d6000fd5b505050506040513d601f19601f82011682018060405250810190611e0b9190612ff2565b15611e475760405162461bcd60e51b815260206004820152600c60248201526b1c995c185e4819985a5b195960a21b60448201526064016104e1565b5050565b60015460ff1615610ecf5760405162461bcd60e51b815260206004820152601060248201526f14185d5cd8589b194e881c185d5cd95960821b60448201526064016104e1565b6040516001600160a01b038316602482015260448101829052611ec190849063a9059cbb60e01b90606401611cd4565b505050565b611ece612bd6565b6001805460ff191690557f5db9ee0a495bf2e6ff9c91a7834c1ba4fdd244a5e8aa4e537bd38aeae4b073aa335b6040516001600160a01b03909116815260200160405180910390a1565b600080611f2483612939565b905060007f00000000000000000000000000000000000000000000000000000000000000006001600160a01b031663313ce5676040518163ffffffff1660e01b815260040160206040518083038186803b158015611f8157600080fd5b505afa158015611f95573d6000803e3d6000fd5b505050506040513d601f19601f82011682018060405250810190611fb9919061303f565b90506000611fc8826012613306565b611fd390600a6131ff565b611fdd90846132d0565b9050670de0b6b3a7640000600360009054906101000a90046001600160a01b03166001600160a01b03166398d5fdca6040518163ffffffff1660e01b815260040160206040518083038186803b15801561203657600080fd5b505afa15801561204a573d6000803e3d6000fd5b505050506040513d601f19601f8201168201806040525081019061206e9190612ff2565b61207890836132d0565b6120829190613199565b95945050505050565b306001600160a01b031663d62429ba6040518163ffffffff1660e01b815260040160206040518083038186803b1580156120c457600080fd5b505afa1580156120d8573d6000803e3d6000fd5b505050506040513d601f19601f820116820180604052508101906120fc9190612ff2565b6121068383612281565b11156121245760405162461bcd60e51b81526004016104e1906130e6565b60405163317afabb60e21b8152600481018290526001600160a01b0383169063c5ebeaec90602401602060405180830381600087803b15801561216657600080fd5b505af115801561217a573d6000803e3d6000fd5b505050506040513d601f19601f8201168201806040525081019061219e9190612ff2565b156121db5760405162461bcd60e51b815260206004820152600d60248201526c189bdc9c9bddc819985a5b1959609a1b60448201526064016104e1565b611e477f000000000000000000000000000000000000000000000000000000000000000082846001600160a01b0316636f307dc36040518163ffffffff1660e01b815260040160206040518083038186803b15801561223957600080fd5b505afa15801561224d573d6000803e3d6000fd5b505050506040513d601f19601f820116820180604052508101906122719190612e10565b6001600160a01b03169190611e91565b604051632aff3bff60e21b8152306004820152600090819081906001600160a01b037f0000000000000000000000000000000000000000000000000000000000000000169063abfceffc9060240160006040518083038186803b1580156122e757600080fd5b505afa1580156122fb573d6000803e3d6000fd5b505050506040513d6000823e601f3d908101601f191682016040526123239190810190612e2c565b905060007f00000000000000000000000000000000000000000000000000000000000000006001600160a01b0316637dc0d1d06040518163ffffffff1660e01b815260040160206040518083038186803b15801561238057600080fd5b505afa158015612394573d6000803e3d6000fd5b505050506040513d601f19601f820116820180604052508101906123b89190612e10565b905060005b82518110156125605760008382815181106123e857634e487b7160e01b600052603260045260246000fd5b60209081029190910101516040516361bfb47160e11b815230600482015290915060009081906001600160a01b0384169063c37f68e29060240160806040518083038186803b15801561243a57600080fd5b505afa15801561244e573d6000803e3d6000fd5b505050506040513d601f19601f82011682018060405250810190612472919061300a565b5092505050896001600160a01b0316836001600160a01b031614156124a25761249b8982613181565b91506124a6565b8091505b60405163fc57d4df60e01b81526001600160a01b038481166004830152670de0b6b3a7640000919087169063fc57d4df9060240160206040518083038186803b1580156124f257600080fd5b505afa158015612506573d6000803e3d6000fd5b505050506040513d601f19601f8201168201806040525081019061252a9190612ff2565b61253490846132d0565b61253e9190613199565b6125489088613181565b9650505050808061255890613355565b9150506123bd565b509195945050505050565b6000816001600160a01b0316636f307dc36040518163ffffffff1660e01b815260040160206040518083038186803b1580156125a657600080fd5b505afa1580156125ba573d6000803e3d6000fd5b505050506040513d601f19601f820116820180604052508101906125de9190612e10565b9050306001600160a01b0316634031234c6040518163ffffffff1660e01b815260040160206040518083038186803b15801561261957600080fd5b505afa15801561262d573d6000803e3d6000fd5b505050506040513d601f19601f820116820180604052508101906126519190612ff2565b306001600160a01b0316638696465e6040518163ffffffff1660e01b815260040160206040518083038186803b15801561268a57600080fd5b505afa15801561269e573d6000803e3d6000fd5b505050506040513d601f19601f820116820180604052508101906126c29190612ff2565b116127025760405162461bcd60e51b815260206004820152601060248201526f6e6f74206c6971756964617461626c6560801b60448201526064016104e1565b6001600160a01b038281166000908152600460205260409020541661275b5760405162461bcd60e51b815260206004820152600f60248201526e32b6b83a3c9031b7b73b32b93a32b960891b60448201526064016104e1565b6001600160a01b038281166000908152600460208181526040928390205483516367e828bf60e01b815293517f000000000000000000000000000000000000000000000000000000000000000086169591909116936367e828bf93818101939291829003018186803b1580156127d057600080fd5b505afa1580156127e4573d6000803e3d6000fd5b505050506040513d601f19601f820116820180604052508101906128089190612e10565b6001600160a01b0316146128565760405162461bcd60e51b815260206004820152601560248201527436b4b9b6b0ba31b41039b7bab931b2903a37b5b2b760591b60448201526064016104e1565b6001600160a01b0382811660009081526004602081815260409283902054835163b269681d60e01b8152935185871695919091169363b269681d93818101939291829003018186803b1580156128ab57600080fd5b505afa1580156128bf573d6000803e3d6000fd5b505050506040513d601f19601f820116820180604052508101906128e39190612e10565b6001600160a01b031614611e475760405162461bcd60e51b815260206004820152601a60248201527f6d69736d617463682064657374696e6174696f6e20746f6b656e00000000000060448201526064016104e1565b6040516370a0823160e01b8152306004820152600090819083906001600160a01b037f000000000000000000000000000000000000000000000000000000000000000016906370a082319060240160206040518083038186803b15801561299f57600080fd5b505afa1580156129b3573d6000803e3d6000fd5b505050506040513d601f19601f820116820180604052508101906129d79190612ff2565b6129e191906132ef565b90506002546000141580156129f857508060025411155b15612a0257506002545b92915050565b604051636eb1769f60e11b81523060048201526001600160a01b038381166024830152600091839186169063dd62ed3e9060440160206040518083038186803b158015612a5457600080fd5b505afa158015612a68573d6000803e3d6000fd5b505050506040513d601f19601f82011682018060405250810190612a8c9190612ff2565b612a969190613181565b6040516001600160a01b0385166024820152604481018290529091506113bb90859063095ea7b360e01b90606401611cd4565b612ad1611e4b565b6001805460ff1916811790557f62e78cea01bee320cd4e420270b5ea74000d11b0c9f74754ebdbfc544b05a25833611efb565b6000612b59826040518060400160405280602081526020017f5361666545524332303a206c6f772d6c6576656c2063616c6c206661696c6564815250856001600160a01b0316612c1f9092919063ffffffff16565b805190915015611ec15780806020019051810190612b779190612f5b565b611ec15760405162461bcd60e51b815260206004820152602a60248201527f5361666545524332303a204552433230206f7065726174696f6e20646964206e6044820152691bdd081cdd58d8d9595960b21b60648201526084016104e1565b60015460ff16610ecf5760405162461bcd60e51b815260206004820152601460248201527314185d5cd8589b194e881b9bdd081c185d5cd95960621b60448201526064016104e1565b6060612c2e8484600085612c36565b949350505050565b606082471015612c975760405162461bcd60e51b815260206004820152602660248201527f416464726573733a20696e73756666696369656e742062616c616e636520666f6044820152651c8818d85b1b60d21b60648201526084016104e1565b6001600160a01b0385163b612cee5760405162461bcd60e51b815260206004820152601d60248201527f416464726573733a2063616c6c20746f206e6f6e2d636f6e747261637400000060448201526064016104e1565b600080866001600160a01b03168587604051612d0a9190613060565b60006040518083038185875af1925050503d8060008114612d47576040519150601f19603f3d011682016040523d82523d6000602084013e612d4c565b606091505b5091509150612d5c828286612d67565b979650505050505050565b60608315612d76575081610fb1565b825115612d865782518084602001fd5b8160405162461bcd60e51b81526004016104e1919061307c565b80516114728161339c565b60008083601f840112612dbc578182fd5b50813567ffffffffffffffff811115612dd3578182fd5b6020830191508360208083028501011115612ded57600080fd5b9250929050565b600060208284031215612e05578081fd5b8135610fb18161339c565b600060208284031215612e21578081fd5b8151610fb18161339c565b60006020808385031215612e3e578182fd5b825167ffffffffffffffff80821115612e55578384fd5b818501915085601f830112612e68578384fd5b815181811115612e7a57612e7a613386565b838102604051601f19603f83011681018181108582111715612e9e57612e9e613386565b604052828152858101935084860182860187018a1015612ebc578788fd5b8795505b83861015612ee557612ed181612da0565b855260019590950194938601938601612ec0565b5098975050505050505050565b60008060008060408587031215612f07578283fd5b843567ffffffffffffffff80821115612f1e578485fd5b612f2a88838901612dab565b90965094506020870135915080821115612f42578384fd5b50612f4f87828801612dab565b95989497509550505050565b600060208284031215612f6c578081fd5b81518015158114610fb1578182fd5b60008060408385031215612f8d578182fd5b8235612f988161339c565b946020939093013593505050565b600080600060608486031215612fba578283fd5b8335612fc58161339c565b95602085013595506040909401359392505050565b600060208284031215612feb578081fd5b5035919050565b600060208284031215613003578081fd5b5051919050565b6000806000806080858703121561301f578384fd5b505082516020840151604085015160609095015191969095509092509050565b600060208284031215613050578081fd5b815160ff81168114610fb1578182fd5b60008251613072818460208701613329565b9190910192915050565b600060208252825180602084015261309b816040850160208701613329565b601f01601f19169190910160400192915050565b6020808252601a908201527f63616c6c6572206973206e6f742074686520626f72726f776572000000000000604082015260600190565b6020808252601390820152721d5b99195c98dbdb1b185d195c985b1a5e9959606a1b604082015260600190565b6020808252601a908201527f63616c6c6572206973206e6f7420746865206578656375746f72000000000000604082015260600190565b6020808252601f908201527f5265656e7472616e637947756172643a207265656e7472616e742063616c6c00604082015260600190565b6000821982111561319457613194613370565b500190565b6000826131b457634e487b7160e01b81526012600452602481fd5b500490565b80825b60018086116131cb57506131f6565b8187048211156131dd576131dd613370565b808616156131ea57918102915b9490941c9380026131bc565b94509492505050565b6000610fb160001960ff85168460008261321b57506001610fb1565b8161322857506000610fb1565b816001811461323e576002811461324857613275565b6001915050610fb1565b60ff84111561325957613259613370565b6001841b91508482111561326f5761326f613370565b50610fb1565b5060208310610133831016604e8410600b84101617156132a8575081810a838111156132a3576132a3613370565b610fb1565b6132b584848460016131b9565b8086048211156132c7576132c7613370565b02949350505050565b60008160001904831182151516156132ea576132ea613370565b500290565b60008282101561330157613301613370565b500390565b600060ff821660ff84168082101561332057613320613370565b90039392505050565b60005b8381101561334457818101518382015260200161332c565b838111156113bb5750506000910152565b600060001982141561336957613369613370565b5060010190565b634e487b7160e01b600052601160045260246000fd5b634e487b7160e01b600052604160045260246000fd5b6001600160a01b03811681146133b157600080fd5b5056fea2646970667358221220c9868e8040a5bb5d16397d5402df2a4a4512ed566be57f431d6638ecc342dd2464736f6c63430008020033a2646970667358221220350894417fda513259d7075d328615f81c89b8e7efd472afadf7689dccdca38a64736f6c63430008020033",
  "devdoc": {
    "kind": "dev",
    "methods": {
      "owner()": {
        "details": "Returns the address of the current owner."
      },
      "renounceOwnership()": {
        "details": "Leaves the contract without owner. It will not be possible to call `onlyOwner` functions anymore. Can only be called by the current owner. NOTE: Renouncing ownership will leave the contract without an owner, thereby removing any functionality that is only available to the owner."
      },
      "transferOwnership(address)": {
        "details": "Transfers ownership of the contract to a new account (`newOwner`). Can only be called by the current owner."
      }
    },
    "version": 1
  },
  "userdoc": {
    "kind": "user",
    "methods": {},
    "version": 1
  },
  "storageLayout": {
    "storage": [
      {
        "astId": 538,
        "contract": "contracts/IBAgreementFactory.sol:IBAgreementFactory",
        "label": "_owner",
        "offset": 0,
        "slot": "0",
        "type": "t_address"
      },
      {
        "astId": 3891,
        "contract": "contracts/IBAgreementFactory.sol:IBAgreementFactory",
        "label": "ibAgreements",
        "offset": 0,
        "slot": "1",
        "type": "t_array(t_address)dyn_storage"
      }
    ],
    "types": {
      "t_address": {
        "encoding": "inplace",
        "label": "address",
        "numberOfBytes": "20"
      },
      "t_array(t_address)dyn_storage": {
        "base": "t_address",
        "encoding": "dynamic_array",
        "label": "address[]",
        "numberOfBytes": "32"
      }
    }
  }
}