{
  "address": "0x8f3aB2bE32dA1F5b1Db934946FDC5f5415140f8B",
  "abi": [
    {
      "inputs": [
        {
          "internalType": "address",
          "name": "_uniswapV3Router",
          "type": "address"
        },
        {
          "internalType": "address",
          "name": "_uniswapV3Quoter",
          "type": "address"
        },
        {
          "internalType": "address[]",
          "name": "_paths",
          "type": "address[]"
        },
        {
          "internalType": "uint24[]",
          "name": "_fees",
          "type": "uint24[]"
        }
      ],
      "stateMutability": "nonpayable",
      "type": "constructor"
    },
    {
      "anonymous": false,
      "inputs": [
        {
          "indexed": true,
          "internalType": "address",
          "name": "previousOwner",
          "type": "address"
        },
        {
          "indexed": true,
          "internalType": "address",
          "name": "newOwner",
          "type": "address"
        }
      ],
      "name": "OwnershipTransferred",
      "type": "event"
    },
    {
      "inputs": [
        {
          "internalType": "uint256",
          "name": "amountIn",
          "type": "uint256"
        },
        {
          "internalType": "uint256",
          "name": "amountOutMin",
          "type": "uint256"
        }
      ],
      "name": "convertExactTokensForTokens",
      "outputs": [
        {
          "internalType": "uint256",
          "name": "",
          "type": "uint256"
        }
      ],
      "stateMutability": "nonpayable",
      "type": "function"
    },
    {
      "inputs": [
        {
          "internalType": "uint256",
          "name": "amountOut",
          "type": "uint256"
        },
        {
          "internalType": "uint256",
          "name": "amountInMax",
          "type": "uint256"
        }
      ],
      "name": "convertTokensForExactTokens",
      "outputs": [
        {
          "internalType": "uint256",
          "name": "",
          "type": "uint256"
        }
      ],
      "stateMutability": "nonpayable",
      "type": "function"
    },
    {
      "inputs": [],
      "name": "destination",
      "outputs": [
        {
          "internalType": "address",
          "name": "",
          "type": "address"
        }
      ],
      "stateMutability": "view",
      "type": "function"
    },
    {
      "inputs": [
        {
          "internalType": "uint256",
          "name": "",
          "type": "uint256"
        }
      ],
      "name": "fees",
      "outputs": [
        {
          "internalType": "uint24",
          "name": "",
          "type": "uint24"
        }
      ],
      "stateMutability": "view",
      "type": "function"
    },
    {
      "inputs": [
        {
          "internalType": "uint256",
          "name": "amountOut",
          "type": "uint256"
        }
      ],
      "name": "getAmountIn",
      "outputs": [
        {
          "internalType": "uint256",
          "name": "",
          "type": "uint256"
        }
      ],
      "stateMutability": "nonpayable",
      "type": "function"
    },
    {
      "inputs": [
        {
          "internalType": "uint256",
          "name": "amountIn",
          "type": "uint256"
        }
      ],
      "name": "getAmountOut",
      "outputs": [
        {
          "internalType": "uint256",
          "name": "",
          "type": "uint256"
        }
      ],
      "stateMutability": "nonpayable",
      "type": "function"
    },
    {
      "inputs": [],
      "name": "owner",
      "outputs": [
        {
          "internalType": "address",
          "name": "",
          "type": "address"
        }
      ],
      "stateMutability": "view",
      "type": "function"
    },
    {
      "inputs": [],
      "name": "pathForExactIn",
      "outputs": [
        {
          "internalType": "bytes",
          "name": "",
          "type": "bytes"
        }
      ],
      "stateMutability": "view",
      "type": "function"
    },
    {
      "inputs": [],
      "name": "pathForExactOut",
      "outputs": [
        {
          "internalType": "bytes",
          "name": "",
          "type": "bytes"
        }
      ],
      "stateMutability": "view",
      "type": "function"
    },
    {
      "inputs": [
        {
          "internalType": "uint256",
          "name": "",
          "type": "uint256"
        }
      ],
      "name": "paths",
      "outputs": [
        {
          "internalType": "address",
          "name": "",
          "type": "address"
        }
      ],
      "stateMutability": "view",
      "type": "function"
    },
    {
      "inputs": [],
      "name": "renounceOwnership",
      "outputs": [],
      "stateMutability": "nonpayable",
      "type": "function"
    },
    {
      "inputs": [
        {
          "internalType": "address",
          "name": "token",
          "type": "address"
        }
      ],
      "name": "seize",
      "outputs": [],
      "stateMutability": "nonpayable",
      "type": "function"
    },
    {
      "inputs": [],
      "name": "source",
      "outputs": [
        {
          "internalType": "address",
          "name": "",
          "type": "address"
        }
      ],
      "stateMutability": "view",
      "type": "function"
    },
    {
      "inputs": [
        {
          "internalType": "address",
          "name": "newOwner",
          "type": "address"
        }
      ],
      "name": "transferOwnership",
      "outputs": [],
      "stateMutability": "nonpayable",
      "type": "function"
    },
    {
      "inputs": [],
      "name": "uniswapV3Quoter",
      "outputs": [
        {
          "internalType": "contract IQuoter",
          "name": "",
          "type": "address"
        }
      ],
      "stateMutability": "view",
      "type": "function"
    },
    {
      "inputs": [],
      "name": "uniswapV3Router",
      "outputs": [
        {
          "internalType": "contract ISwapRouter",
          "name": "",
          "type": "address"
        }
      ],
      "stateMutability": "view",
      "type": "function"
    }
  ],
  "transactionHash": "0xac685fc9baa6c6059fcb2410670380ff76e52b29655ede838d46ca1d3bef14d9",
  "args": [
    "0xE592427A0AEce92De3Edee1F18E0157C05861564",
    "0xb27308f9F90D607463bb33eA1BeBb41C27CE5AB6",
    [
      "0x9e1028F5F1D5eDE59748FFceE5532509976840E0",
      "0x4200000000000000000000000000000000000006",
      "0x7F5c764cBc14f9669B88837ca1490cCa17c31607"
    ],
    [
      3000,
      500
    ]
  ],
  "numDeployments": 1,
  "solcInputHash": "eb99769ab07cc47b68caa4662eb26299",
  "bytecode": "0x6101006040523480156200001257600080fd5b5060405162001b5a38038062001b5a83398101604081905262000035916200058e565b6200004033620002f0565b6001600160601b0319606085811b821660805284901b1660a052815182906000906200007c57634e487b7160e01b600052603260045260246000fd5b60200260200101516001600160a01b031660c0816001600160a01b031660601b815250508160018351620000b191906200081b565b81518110620000d057634e487b7160e01b600052603260045260246000fd5b60209081029190910181015160601b6001600160601b03191660e052825162000100916001919085019062000340565b50805162000116906002906020840190620003aa565b5060005b8251811015620002e55760038382815181106200014757634e487b7160e01b600052603260045260246000fd5b6020026020010151604051602001620001629291906200074c565b604051602081830303815290604052600390805190602001906200018892919062000458565b50828181518110620001aa57634e487b7160e01b600052603260045260246000fd5b60200260200101516004604051602001620001c792919062000722565b60405160208183030381529060405260049080519060200190620001ed92919062000458565b5060018351620001fe91906200081b565b8114620002d05760038282815181106200022857634e487b7160e01b600052603260045260246000fd5b60200260200101516040516020016200024392919062000776565b604051602081830303815290604052600390805190602001906200026992919062000458565b508181815181106200028b57634e487b7160e01b600052603260045260246000fd5b60200260200101516004604051602001620002a8929190620007a0565b60405160208183030381529060405260049080519060200190620002ce92919062000458565b505b80620002dc8162000872565b9150506200011a565b5050505050620008bc565b600080546001600160a01b038381166001600160a01b0319831681178455604051919092169283917f8be0079c531659141344cd1fd0a4f28419497f9722a3daafe3b4186f6b6457e09190a35050565b82805482825590600052602060002090810192821562000398579160200282015b828111156200039857825182546001600160a01b0319166001600160a01b0390911617825560209092019160019091019062000361565b50620003a6929150620004d5565b5090565b82805482825590600052602060002090600901600a90048101928215620003985791602002820160005b838211156200041857835183826101000a81548162ffffff021916908362ffffff1602179055509260200192600301602081600201049283019260010302620003d4565b8015620004495782816101000a81549062ffffff021916905560030160208160020104928301926001030262000418565b5050620003a6929150620004d5565b828054620004669062000835565b90600052602060002090601f0160209004810192826200048a576000855562000398565b82601f10620004a557805160ff191683800117855562000398565b8280016001018555821562000398579182015b8281111562000398578251825591602001919060010190620004b8565b5b80821115620003a65760008155600101620004d6565b80516001600160a01b03811681146200050457600080fd5b919050565b600082601f8301126200051a578081fd5b81516020620005336200052d83620007f5565b620007c2565b828152818101908583018385028701840188101562000550578586fd5b855b858110156200058157815162ffffff811681146200056e578788fd5b8452928401929084019060010162000552565b5090979650505050505050565b60008060008060808587031215620005a4578384fd5b620005af85620004ec565b93506020620005c0818701620004ec565b60408701519094506001600160401b0380821115620005dd578485fd5b818801915088601f830112620005f1578485fd5b8151620006026200052d82620007f5565b81815284810190848601868402860187018d10156200061f578889fd5b8895505b838610156200064c576200063781620004ec565b83526001959095019491860191860162000623565b5060608b0151909750945050508083111562000666578384fd5b5050620006768782880162000509565b91505092959194509250565b8054600090600281046001808316806200069d57607f831692505b6020808410821415620006be57634e487b7160e01b86526022600452602486fd5b818015620006d55760018114620006e75762000716565b60ff1986168952848901965062000716565b60008881526020902060005b868110156200070e5781548b820152908501908301620006f3565b505084890196505b50505050505092915050565b606083901b6001600160601b0319168152600062000744601483018462000682565b949350505050565b60006200075a828562000682565b60609390931b6001600160601b03191683525050601401919050565b600062000784828562000682565b60e89390931b6001600160e81b03191683525050600301919050565b60e883901b6001600160e81b0319168152600062000744600383018462000682565b604051601f8201601f191681016001600160401b0381118282101715620007ed57620007ed620008a6565b604052919050565b60006001600160401b03821115620008115762000811620008a6565b5060209081020190565b60008282101562000830576200083062000890565b500390565b6002810460018216806200084a57607f821691505b602082108114156200086c57634e487b7160e01b600052602260045260246000fd5b50919050565b600060001982141562000889576200088962000890565b5060010190565b634e487b7160e01b600052601160045260246000fd5b634e487b7160e01b600052604160045260246000fd5b60805160601c60a05160601c60c05160601c60e05160601c6112126200094860003960006102360152600081816101ba0152818161047f015281816104b401528181610810015261084501526000818161017501528181610301015261067d01526000818161010a015281816104d6015281816105be01528181610867015261094f01526112126000f3fe608060405234801561001057600080fd5b50600436106101005760003560e01c80639b4faa8011610097578063e8c9317111610066578063e8c931711461026d578063f2fde38b14610275578063fb3ee57114610288578063fc1bcd491461029b57610100565b80639b4faa801461020c5780639f7d5d351461021f578063b269681d14610234578063b9e355ea1461025a57610100565b806367e828bf116100d357806367e828bf146101b8578063715018a6146101de5780637568fdcc146101e85780638da5cb5b146101fb57610100565b80632c76d7a6146101055780634acc79ed146101495780634d20d0f8146101705780635c19521714610197575b600080fd5b61012c7f000000000000000000000000000000000000000000000000000000000000000081565b6040516001600160a01b0390911681526020015b60405180910390f35b61015c610157366004610f92565b6102ae565b60405162ffffff9091168152602001610140565b61012c7f000000000000000000000000000000000000000000000000000000000000000081565b6101aa6101a5366004610f92565b6102e7565b604051908152602001610140565b7f000000000000000000000000000000000000000000000000000000000000000061012c565b6101e6610391565b005b6101aa6101f6366004610fc2565b6103a5565b6000546001600160a01b031661012c565b6101aa61021a366004610f92565b610663565b6102276106b4565b604051610140919061107c565b7f000000000000000000000000000000000000000000000000000000000000000061012c565b6101aa610268366004610fc2565b610742565b610227610999565b6101e6610283366004610f4b565b6109a6565b6101e6610296366004610f4b565b610a1f565b61012c6102a9366004610f92565b610abb565b600281815481106102be57600080fd5b90600052602060002090600a9182820401919006600302915054906101000a900462ffffff1681565b60405163cdca175360e01b81526000906001600160a01b037f0000000000000000000000000000000000000000000000000000000000000000169063cdca17539061033990600390869060040161108f565b602060405180830381600087803b15801561035357600080fd5b505af1158015610367573d6000803e3d6000fd5b505050506040513d601f19601f8201168201806040525081019061038b9190610faa565b92915050565b610399610ae5565b6103a36000610b3f565b565b604051635c19521760e01b81526004810183905260009081903090635c19521790602401602060405180830381600087803b1580156103e357600080fd5b505af11580156103f7573d6000803e3d6000fd5b505050506040513d601f19601f8201168201806040525081019061041b9190610faa565b9050828110156104725760405162461bcd60e51b815260206004820152601a60248201527f696e73756666696369656e74206f757470757420616d6f756e7400000000000060448201526064015b60405180910390fd5b6104a76001600160a01b037f000000000000000000000000000000000000000000000000000000000000000016333087610b8f565b6104fb6001600160a01b037f0000000000000000000000000000000000000000000000000000000000000000167f000000000000000000000000000000000000000000000000000000000000000086610c00565b60006040518060a0016040528060038054610515906111a1565b80601f0160208091040260200160405190810160405280929190818152602001828054610541906111a1565b801561058e5780601f106105635761010080835404028352916020019161058e565b820191906000526020600020905b81548152906001019060200180831161057157829003601f168201915b50505091835250503360208201526040016105ab42610e10611151565b81526020018681526020018581525090507f00000000000000000000000000000000000000000000000000000000000000006001600160a01b031663c04b8d59826040518263ffffffff1660e01b8152600401610608919061113e565b602060405180830381600087803b15801561062257600080fd5b505af1158015610636573d6000803e3d6000fd5b505050506040513d601f19601f8201168201806040525081019061065a9190610faa565b95945050505050565b604051632f80bb1d60e01b81526000906001600160a01b037f00000000000000000000000000000000000000000000000000000000000000001690632f80bb1d90610339906004908690820161108f565b600480546106c1906111a1565b80601f01602080910402602001604051908101604052809291908181526020018280546106ed906111a1565b801561073a5780601f1061070f5761010080835404028352916020019161073a565b820191906000526020600020905b81548152906001019060200180831161071d57829003601f168201915b505050505081565b6040516301369f5560e71b81526004810183905260009081903090639b4faa8090602401602060405180830381600087803b15801561078057600080fd5b505af1158015610794573d6000803e3d6000fd5b505050506040513d601f19601f820116820180604052508101906107b89190610faa565b9050828111156108035760405162461bcd60e51b8152602060048201526016602482015275195e18d95cdcda5d99481a5b9c1d5d08185b5bdd5b9d60521b6044820152606401610469565b6108386001600160a01b037f000000000000000000000000000000000000000000000000000000000000000016333084610b8f565b61088c6001600160a01b037f0000000000000000000000000000000000000000000000000000000000000000167f000000000000000000000000000000000000000000000000000000000000000083610c00565b60006040518060a00160405280600480546108a6906111a1565b80601f01602080910402602001604051908101604052809291908181526020018280546108d2906111a1565b801561091f5780601f106108f45761010080835404028352916020019161091f565b820191906000526020600020905b81548152906001019060200180831161090257829003601f168201915b505050918352505033602082015260400161093c42610e10611151565b81526020018681526020018581525090507f00000000000000000000000000000000000000000000000000000000000000006001600160a01b031663f28c0498826040518263ffffffff1660e01b8152600401610608919061113e565b600380546106c1906111a1565b6109ae610ae5565b6001600160a01b038116610a135760405162461bcd60e51b815260206004820152602660248201527f4f776e61626c653a206e6577206f776e657220697320746865207a65726f206160448201526564647265737360d01b6064820152608401610469565b610a1c81610b3f565b50565b610a27610ae5565b6040516370a0823160e01b81523060048201526000906001600160a01b038316906370a082319060240160206040518083038186803b158015610a6957600080fd5b505afa158015610a7d573d6000803e3d6000fd5b505050506040513d601f19601f82011682018060405250810190610aa19190610faa565b9050610ab76001600160a01b0383163383610cc1565b5050565b60018181548110610acb57600080fd5b6000918252602090912001546001600160a01b0316905081565b6000546001600160a01b031633146103a35760405162461bcd60e51b815260206004820181905260248201527f4f776e61626c653a2063616c6c6572206973206e6f7420746865206f776e65726044820152606401610469565b600080546001600160a01b038381166001600160a01b0319831681178455604051919092169283917f8be0079c531659141344cd1fd0a4f28419497f9722a3daafe3b4186f6b6457e09190a35050565b6040516001600160a01b0380851660248301528316604482015260648101829052610bfa9085906323b872dd60e01b906084015b60408051601f198184030181529190526020810180516001600160e01b03166001600160e01b031990931692909217909152610cf6565b50505050565b604051636eb1769f60e11b81523060048201526001600160a01b038381166024830152600091839186169063dd62ed3e9060440160206040518083038186803b158015610c4c57600080fd5b505afa158015610c60573d6000803e3d6000fd5b505050506040513d601f19601f82011682018060405250810190610c849190610faa565b610c8e9190611151565b6040516001600160a01b038516602482015260448101829052909150610bfa90859063095ea7b360e01b90606401610bc3565b6040516001600160a01b038316602482015260448101829052610cf190849063a9059cbb60e01b90606401610bc3565b505050565b6000610d4b826040518060400160405280602081526020017f5361666545524332303a206c6f772d6c6576656c2063616c6c206661696c6564815250856001600160a01b0316610dc89092919063ffffffff16565b805190915015610cf15780806020019051810190610d699190610f72565b610cf15760405162461bcd60e51b815260206004820152602a60248201527f5361666545524332303a204552433230206f7065726174696f6e20646964206e6044820152691bdd081cdd58d8d9595960b21b6064820152608401610469565b6060610dd78484600085610de1565b90505b9392505050565b606082471015610e425760405162461bcd60e51b815260206004820152602660248201527f416464726573733a20696e73756666696369656e742062616c616e636520666f6044820152651c8818d85b1b60d21b6064820152608401610469565b6001600160a01b0385163b610e995760405162461bcd60e51b815260206004820152601d60248201527f416464726573733a2063616c6c20746f206e6f6e2d636f6e74726163740000006044820152606401610469565b600080866001600160a01b03168587604051610eb59190611060565b60006040518083038185875af1925050503d8060008114610ef2576040519150601f19603f3d011682016040523d82523d6000602084013e610ef7565b606091505b5091509150610f07828286610f12565b979650505050505050565b60608315610f21575081610dda565b825115610f315782518084602001fd5b8160405162461bcd60e51b8152600401610469919061107c565b600060208284031215610f5c578081fd5b81356001600160a01b0381168114610dda578182fd5b600060208284031215610f83578081fd5b81518015158114610dda578182fd5b600060208284031215610fa3578081fd5b5035919050565b600060208284031215610fbb578081fd5b5051919050565b60008060408385031215610fd4578081fd5b50508035926020909101359150565b60008151808452610ffb816020860160208601611175565b601f01601f19169290920160200192915050565b6000815160a0845261102460a0850182610fe3565b6020848101516001600160a01b031690860152604080850151908601526060808501519086015260809384015193909401929092525090919050565b60008251611072818460208701611175565b9190910192915050565b600060208252610dda6020830184610fe3565b6040815282546000908190600281046001808316806110af57607f831692505b60208084108214156110cf57634e487b7160e01b87526022600452602487fd5b60408801849052606088018280156110ee57600181146110ff57611129565b60ff19871682528282019750611129565b60008c815260209020895b878110156111235781548482015290860190840161110a565b83019850505b50509690960196909652509095945050505050565b600060208252610dda602083018461100f565b6000821982111561117057634e487b7160e01b81526011600452602481fd5b500190565b60005b83811015611190578181015183820152602001611178565b83811115610bfa5750506000910152565b6002810460018216806111b557607f821691505b602082108114156111d657634e487b7160e01b600052602260045260246000fd5b5091905056fea26469706673582212207061188ad38a58b57292afd66cc365c8164b49e7296c54db8221803e71f218a364736f6c63430008020033",
  "devdoc": {
    "kind": "dev",
    "methods": {
      "owner()": {
        "details": "Returns the address of the current owner."
      },
      "renounceOwnership()": {
        "details": "Leaves the contract without owner. It will not be possible to call `onlyOwner` functions anymore. Can only be called by the current owner. NOTE: Renouncing ownership will leave the contract without an owner, thereby removing any functionality that is only available to the owner."
      },
      "transferOwnership(address)": {
        "details": "Transfers ownership of the contract to a new account (`newOwner`). Can only be called by the current owner."
      }
    },
    "version": 1
  },
  "userdoc": {
    "kind": "user",
    "methods": {},
    "version": 1
  },
  "storageLayout": {
    "storage": [
      {
        "astId": 538,
        "contract": "contracts/converters/UniswapV3Converter.sol:UniswapV3Converter",
        "label": "_owner",
        "offset": 0,
        "slot": "0",
        "type": "t_address"
      },
      {
        "astId": 4186,
        "contract": "contracts/converters/UniswapV3Converter.sol:UniswapV3Converter",
        "label": "paths",
        "offset": 0,
        "slot": "1",
        "type": "t_array(t_address)dyn_storage"
      },
      {
        "astId": 4189,
        "contract": "contracts/converters/UniswapV3Converter.sol:UniswapV3Converter",
        "label": "fees",
        "offset": 0,
        "slot": "2",
        "type": "t_array(t_uint24)dyn_storage"
      },
      {
        "astId": 4191,
        "contract": "contracts/converters/UniswapV3Converter.sol:UniswapV3Converter",
        "label": "pathForExactIn",
        "offset": 0,
        "slot": "3",
        "type": "t_bytes_storage"
      },
      {
        "astId": 4193,
        "contract": "contracts/converters/UniswapV3Converter.sol:UniswapV3Converter",
        "label": "pathForExactOut",
        "offset": 0,
        "slot": "4",
        "type": "t_bytes_storage"
      }
    ],
    "types": {
      "t_address": {
        "encoding": "inplace",
        "label": "address",
        "numberOfBytes": "20"
      },
      "t_array(t_address)dyn_storage": {
        "base": "t_address",
        "encoding": "dynamic_array",
        "label": "address[]",
        "numberOfBytes": "32"
      },
      "t_array(t_uint24)dyn_storage": {
        "base": "t_uint24",
        "encoding": "dynamic_array",
        "label": "uint24[]",
        "numberOfBytes": "32"
      },
      "t_bytes_storage": {
        "encoding": "bytes",
        "label": "bytes",
        "numberOfBytes": "32"
      },
      "t_uint24": {
        "encoding": "inplace",
        "label": "uint24",
        "numberOfBytes": "3"
      }
    }
  }
}